{
  "_format": "hh-sol-artifact-1",
  "contractName": "Lottery",
  "sourceName": "contracts/lottery.sol",
  "abi": [
    {
      "inputs": [
        {
          "internalType": "address payable",
          "name": "_operator",
          "type": "address"
        },
        {
          "internalType": "uint256",
          "name": "_ticketPrice",
          "type": "uint256"
        },
        {
          "internalType": "uint256",
          "name": "_minPlayers",
          "type": "uint256"
        },
        {
          "internalType": "uint256",
          "name": "_maxPlayers",
          "type": "uint256"
        },
        {
          "internalType": "uint256",
          "name": "_platformFeePercent",
          "type": "uint256"
        },
        {
          "internalType": "uint256",
          "name": "_operatorFeePercent",
          "type": "uint256"
        },
        {
          "internalType": "bytes32",
          "name": "_rngHash",
          "type": "bytes32"
        }
      ],
      "stateMutability": "nonpayable",
      "type": "constructor"
    },
    {
      "anonymous": false,
      "inputs": [
        {
          "indexed": true,
          "internalType": "address",
          "name": "_to",
          "type": "address"
        },
        {
          "indexed": false,
          "internalType": "uint256",
          "name": "_amount",
          "type": "uint256"
        }
      ],
      "name": "FeesReleased",
      "type": "event"
    },
    {
      "anonymous": false,
      "inputs": [
        {
          "indexed": false,
          "internalType": "uint256",
          "name": "_ticketPrice",
          "type": "uint256"
        },
        {
          "indexed": false,
          "internalType": "uint256",
          "name": "_minPlayers",
          "type": "uint256"
        },
        {
          "indexed": false,
          "internalType": "uint256",
          "name": "_maxPlayers",
          "type": "uint256"
        },
        {
          "indexed": false,
          "internalType": "uint256",
          "name": "platformFeePercent",
          "type": "uint256"
        },
        {
          "indexed": false,
          "internalType": "uint256",
          "name": "operatorFeePercent",
          "type": "uint256"
        }
      ],
      "name": "LotteryMinted",
      "type": "event"
    },
    {
      "anonymous": false,
      "inputs": [
        {
          "indexed": true,
          "internalType": "address",
          "name": "previousOwner",
          "type": "address"
        },
        {
          "indexed": true,
          "internalType": "address",
          "name": "newOwner",
          "type": "address"
        }
      ],
      "name": "OwnershipTransferred",
      "type": "event"
    },
    {
      "anonymous": false,
      "inputs": [
        {
          "indexed": true,
          "internalType": "address",
          "name": "_from",
          "type": "address"
        },
        {
          "indexed": false,
          "internalType": "uint256",
          "name": "_value",
          "type": "uint256"
        }
      ],
      "name": "TicketSold",
      "type": "event"
    },
    {
      "anonymous": false,
      "inputs": [
        {
          "indexed": false,
          "internalType": "address",
          "name": "_winner",
          "type": "address"
        }
      ],
      "name": "WinnerDrawn",
      "type": "event"
    },
    {
      "anonymous": false,
      "inputs": [
        {
          "indexed": true,
          "internalType": "address",
          "name": "_to",
          "type": "address"
        },
        {
          "indexed": false,
          "internalType": "uint256",
          "name": "_amount",
          "type": "uint256"
        }
      ],
      "name": "WinningsReleased",
      "type": "event"
    },
    {
      "inputs": [],
      "name": "MAX_OPERATOR_FEE_PERCENT",
      "outputs": [
        {
          "internalType": "uint256",
          "name": "",
          "type": "uint256"
        }
      ],
      "stateMutability": "view",
      "type": "function"
    },
    {
      "inputs": [],
      "name": "MIN_OPERATOR_FEE_PERCENT",
      "outputs": [
        {
          "internalType": "uint256",
          "name": "",
          "type": "uint256"
        }
      ],
      "stateMutability": "view",
      "type": "function"
    },
    {
      "inputs": [],
      "name": "MIN_TICKET_PRICE",
      "outputs": [
        {
          "internalType": "uint256",
          "name": "",
          "type": "uint256"
        }
      ],
      "stateMutability": "view",
      "type": "function"
    },
    {
      "inputs": [],
      "name": "buyTicket",
      "outputs": [],
      "stateMutability": "payable",
      "type": "function"
    },
    {
      "inputs": [
        {
          "internalType": "uint256",
          "name": "randomNumber",
          "type": "uint256"
        }
      ],
      "name": "drawWinner",
      "outputs": [],
      "stateMutability": "nonpayable",
      "type": "function"
    },
    {
      "inputs": [],
      "name": "maxPlayers",
      "outputs": [
        {
          "internalType": "uint256",
          "name": "",
          "type": "uint256"
        }
      ],
      "stateMutability": "view",
      "type": "function"
    },
    {
      "inputs": [],
      "name": "minPlayers",
      "outputs": [
        {
          "internalType": "uint256",
          "name": "",
          "type": "uint256"
        }
      ],
      "stateMutability": "view",
      "type": "function"
    },
    {
      "inputs": [],
      "name": "operator",
      "outputs": [
        {
          "internalType": "address payable",
          "name": "",
          "type": "address"
        }
      ],
      "stateMutability": "view",
      "type": "function"
    },
    {
      "inputs": [],
      "name": "operatorFeePercent",
      "outputs": [
        {
          "internalType": "uint256",
          "name": "",
          "type": "uint256"
        }
      ],
      "stateMutability": "view",
      "type": "function"
    },
    {
      "inputs": [],
      "name": "owner",
      "outputs": [
        {
          "internalType": "address",
          "name": "",
          "type": "address"
        }
      ],
      "stateMutability": "view",
      "type": "function"
    },
    {
      "inputs": [],
      "name": "platformFeePercent",
      "outputs": [
        {
          "internalType": "uint256",
          "name": "",
          "type": "uint256"
        }
      ],
      "stateMutability": "view",
      "type": "function"
    },
    {
      "inputs": [],
      "name": "prizePool",
      "outputs": [
        {
          "internalType": "uint256",
          "name": "",
          "type": "uint256"
        }
      ],
      "stateMutability": "view",
      "type": "function"
    },
    {
      "inputs": [],
      "name": "release",
      "outputs": [],
      "stateMutability": "nonpayable",
      "type": "function"
    },
    {
      "inputs": [],
      "name": "renounceOwnership",
      "outputs": [],
      "stateMutability": "nonpayable",
      "type": "function"
    },
    {
      "inputs": [],
      "name": "rngHash",
      "outputs": [
        {
          "internalType": "bytes32",
          "name": "",
          "type": "bytes32"
        }
      ],
      "stateMutability": "view",
      "type": "function"
    },
    {
      "inputs": [],
      "name": "ticketPrice",
      "outputs": [
        {
          "internalType": "uint256",
          "name": "",
          "type": "uint256"
        }
      ],
      "stateMutability": "view",
      "type": "function"
    },
    {
      "inputs": [
        {
          "internalType": "uint256",
          "name": "",
          "type": "uint256"
        }
      ],
      "name": "tickets",
      "outputs": [
        {
          "internalType": "address payable",
          "name": "",
          "type": "address"
        }
      ],
      "stateMutability": "view",
      "type": "function"
    },
    {
      "inputs": [],
      "name": "ticketsSold",
      "outputs": [
        {
          "internalType": "uint256",
          "name": "",
          "type": "uint256"
        }
      ],
      "stateMutability": "view",
      "type": "function"
    },
    {
      "inputs": [
        {
          "internalType": "address",
          "name": "newOwner",
          "type": "address"
        }
      ],
      "name": "transferOwnership",
      "outputs": [],
      "stateMutability": "nonpayable",
      "type": "function"
    },
    {
      "inputs": [],
      "name": "winner",
      "outputs": [
        {
          "internalType": "address",
          "name": "",
          "type": "address"
        }
      ],
      "stateMutability": "view",
      "type": "function"
    }
  ],
  "bytecode": "0x60806040526000600660006101000a81548173ffffffffffffffffffffffffffffffffffffffff021916908373ffffffffffffffffffffffffffffffffffffffff1602179055503480156200005357600080fd5b506040516200206138038062002061833981810160405281019062000079919062000460565b620000996200008d620002b460201b60201c565b620002bc60201b60201c565b60008611620000df576040517f08c379a0000000000000000000000000000000000000000000000000000000008152600401620000d69062000574565b60405180910390fd5b600185101562000126576040517f08c379a00000000000000000000000000000000000000000000000000000000081526004016200011d906200060c565b60405180910390fd5b60648411156200016d576040517f08c379a00000000000000000000000000000000000000000000000000000000081526004016200016490620006a4565b60405180910390fd5b6000821015620001b4576040517f08c379a0000000000000000000000000000000000000000000000000000000008152600401620001ab906200073c565b60405180910390fd5b6003821115620001fb576040517f08c379a0000000000000000000000000000000000000000000000000000000008152600401620001f290620007d4565b60405180910390fd5b86600160006101000a81548173ffffffffffffffffffffffffffffffffffffffff021916908373ffffffffffffffffffffffffffffffffffffffff1602179055508560038190555084600481905550836005819055508060098190555082600881905550816007819055507fd2ec148bc1594f64c2ee6b036ca20e3c09f60046533258f678633430f8ced38886868686866040516200029f95949392919062000807565b60405180910390a15050505050505062000864565b600033905090565b60008060009054906101000a900473ffffffffffffffffffffffffffffffffffffffff169050816000806101000a81548173ffffffffffffffffffffffffffffffffffffffff021916908373ffffffffffffffffffffffffffffffffffffffff1602179055508173ffffffffffffffffffffffffffffffffffffffff168173ffffffffffffffffffffffffffffffffffffffff167f8be0079c531659141344cd1fd0a4f28419497f9722a3daafe3b4186f6b6457e060405160405180910390a35050565b600080fd5b600073ffffffffffffffffffffffffffffffffffffffff82169050919050565b6000620003b28262000385565b9050919050565b620003c481620003a5565b8114620003d057600080fd5b50565b600081519050620003e481620003b9565b92915050565b6000819050919050565b620003ff81620003ea565b81146200040b57600080fd5b50565b6000815190506200041f81620003f4565b92915050565b6000819050919050565b6200043a8162000425565b81146200044657600080fd5b50565b6000815190506200045a816200042f565b92915050565b600080600080600080600060e0888a03121562000482576200048162000380565b5b6000620004928a828b01620003d3565b9750506020620004a58a828b016200040e565b9650506040620004b88a828b016200040e565b9550506060620004cb8a828b016200040e565b9450506080620004de8a828b016200040e565b93505060a0620004f18a828b016200040e565b92505060c0620005048a828b0162000449565b91505092959891949750929550565b600082825260208201905092915050565b7f4d494e5f5449434b45545f50524943455f4e4f545f4d45540000000000000000600082015250565b60006200055c60188362000513565b9150620005698262000524565b602082019050919050565b600060208201905081810360008301526200058f816200054d565b9050919050565b7f4d494e5f504c41594552535f4d5553545f42455f475245415445525f5448414e60008201527f5f31000000000000000000000000000000000000000000000000000000000000602082015250565b6000620005f460228362000513565b9150620006018262000596565b604082019050919050565b600060208201905081810360008301526200062781620005e5565b9050919050565b7f4d41585f504c41594552535f4d5553545f42455f4c4553535f5448414e5f313060008201527f3100000000000000000000000000000000000000000000000000000000000000602082015250565b60006200068c60218362000513565b915062000699826200062e565b604082019050919050565b60006020820190508181036000830152620006bf816200067d565b9050919050565b7f4d494e5f4f50455241544f525f4645455f50455243454e545f4d5553545f424560008201527f5f475245415445525f5448414e5f2d3100000000000000000000000000000000602082015250565b60006200072460308362000513565b91506200073182620006c6565b604082019050919050565b60006020820190508181036000830152620007578162000715565b9050919050565b7f4d494e5f4f50455241544f525f4645455f50455243454e545f4d5553545f424560008201527f5f4c4553535f5448414e5f340000000000000000000000000000000000000000602082015250565b6000620007bc602c8362000513565b9150620007c9826200075e565b604082019050919050565b60006020820190508181036000830152620007ef81620007ad565b9050919050565b6200080181620003ea565b82525050565b600060a0820190506200081e6000830188620007f6565b6200082d6020830187620007f6565b6200083c6040830186620007f6565b6200084b6060830185620007f6565b6200085a6080830184620007f6565b9695505050505050565b6117ed80620008746000396000f3fe60806040526004361061011f5760003560e01c8063719ce73e116100a05780638f15024f116100645780638f15024f14610391578063d62bb34d146103bc578063dfbf53ae146103e7578063edca914c14610412578063f2fde38b1461041c5761011f565b8063719ce73e146102ce5780637b743ea6146102f957806386d1a69f146103245780638c639a851461033b5780638da5cb5b146103665761011f565b80634c2412a2116100e75780634c2412a2146101fb57806350b4471214610226578063570ca7351461026357806360b2a56a1461028e578063715018a6146102b75761011f565b80631209b1f6146101245780631af2a0651461014f5780631e6c21dd1461017a5780632770c895146101a55780633f2853cc146101d0575b600080fd5b34801561013057600080fd5b50610139610445565b60405161014691906110d6565b60405180910390f35b34801561015b57600080fd5b5061016461044b565b60405161017191906110d6565b60405180910390f35b34801561018657600080fd5b5061018f610456565b60405161019c91906110d6565b60405180910390f35b3480156101b157600080fd5b506101ba61045b565b6040516101c791906110d6565b60405180910390f35b3480156101dc57600080fd5b506101e5610461565b6040516101f2919061110a565b60405180910390f35b34801561020757600080fd5b50610210610467565b60405161021d91906110d6565b60405180910390f35b34801561023257600080fd5b5061024d60048036038101906102489190611156565b61046d565b60405161025a91906111c4565b60405180910390f35b34801561026f57600080fd5b506102786104ac565b60405161028591906111c4565b60405180910390f35b34801561029a57600080fd5b506102b560048036038101906102b09190611156565b6104d2565b005b3480156102c357600080fd5b506102cc61071e565b005b3480156102da57600080fd5b506102e36107a6565b6040516102f091906110d6565b60405180910390f35b34801561030557600080fd5b5061030e6107f6565b60405161031b91906110d6565b60405180910390f35b34801561033057600080fd5b506103396107fb565b005b34801561034757600080fd5b50610350610ba0565b60405161035d91906110d6565b60405180910390f35b34801561037257600080fd5b5061037b610ba6565b6040516103889190611200565b60405180910390f35b34801561039d57600080fd5b506103a6610bcf565b6040516103b391906110d6565b60405180910390f35b3480156103c857600080fd5b506103d1610bdc565b6040516103de91906110d6565b60405180910390f35b3480156103f357600080fd5b506103fc610be2565b6040516104099190611200565b60405180910390f35b61041a610c08565b005b34801561042857600080fd5b50610443600480360381019061043e9190611247565b610d4a565b005b60035481565b660110d9316ec00081565b600381565b60045481565b60095481565b60055481565b6002818154811061047d57600080fd5b906000526020600020016000915054906101000a900473ffffffffffffffffffffffffffffffffffffffff1681565b600160009054906101000a900473ffffffffffffffffffffffffffffffffffffffff1681565b6104da610e42565b73ffffffffffffffffffffffffffffffffffffffff166104f8610ba6565b73ffffffffffffffffffffffffffffffffffffffff161461054e576040517f08c379a0000000000000000000000000000000000000000000000000000000008152600401610545906112d1565b60405180910390fd5b600073ffffffffffffffffffffffffffffffffffffffff16600660009054906101000a900473ffffffffffffffffffffffffffffffffffffffff1673ffffffffffffffffffffffffffffffffffffffff16146105df576040517f08c379a00000000000000000000000000000000000000000000000000000000081526004016105d69061133d565b60405180910390fd5b6004546105ea610bcf565b101561062b576040517f08c379a0000000000000000000000000000000000000000000000000000000008152600401610622906113a9565b60405180910390fd5b6000610635610bcf565b8261064091906113f8565b90506002818154811061065657610655611429565b5b9060005260206000200160009054906101000a900473ffffffffffffffffffffffffffffffffffffffff16600660006101000a81548173ffffffffffffffffffffffffffffffffffffffff021916908373ffffffffffffffffffffffffffffffffffffffff1602179055507fb1899e5911a12372a7fa329d3051f8358e8f5156f66bcf69707ea096419681b7600660009054906101000a900473ffffffffffffffffffffffffffffffffffffffff166040516107129190611200565b60405180910390a15050565b610726610e42565b73ffffffffffffffffffffffffffffffffffffffff16610744610ba6565b73ffffffffffffffffffffffffffffffffffffffff161461079a576040517f08c379a0000000000000000000000000000000000000000000000000000000008152600401610791906112d1565b60405180910390fd5b6107a46000610e4a565b565b60008047905060006107ba82600854610f0e565b905060006107d582846107cd9190611487565b600754610f0e565b90508082846107e49190611487565b6107ee9190611487565b935050505090565b600081565b610803610e42565b73ffffffffffffffffffffffffffffffffffffffff16610821610ba6565b73ffffffffffffffffffffffffffffffffffffffff1614610877576040517f08c379a000000000000000000000000000000000000000000000000000000000815260040161086e906112d1565b60405180910390fd5b600073ffffffffffffffffffffffffffffffffffffffff16600660009054906101000a900473ffffffffffffffffffffffffffffffffffffffff1673ffffffffffffffffffffffffffffffffffffffff161415610909576040517f08c379a000000000000000000000000000000000000000000000000000000000815260040161090090611507565b60405180910390fd5b6000610913610ba6565b90506000479050600061092882600854610f0e565b90506000610943828461093b9190611487565b600754610f0e565b90508373ffffffffffffffffffffffffffffffffffffffff166108fc839081150290604051600060405180830381858888f1935050505015801561098b573d6000803e3d6000fd5b508373ffffffffffffffffffffffffffffffffffffffff167f8b890f0c9404d7872044eda5d018927ab4388362c67e7c525a52e1987538863a836040516109d291906110d6565b60405180910390a2600160009054906101000a900473ffffffffffffffffffffffffffffffffffffffff1673ffffffffffffffffffffffffffffffffffffffff166108fc829081150290604051600060405180830381858888f19350505050158015610a42573d6000803e3d6000fd5b50600160009054906101000a900473ffffffffffffffffffffffffffffffffffffffff1673ffffffffffffffffffffffffffffffffffffffff167f8b890f0c9404d7872044eda5d018927ab4388362c67e7c525a52e1987538863a82604051610aab91906110d6565b60405180910390a26000479050600660009054906101000a900473ffffffffffffffffffffffffffffffffffffffff1673ffffffffffffffffffffffffffffffffffffffff166108fc829081150290604051600060405180830381858888f19350505050158015610b20573d6000803e3d6000fd5b50600660009054906101000a900473ffffffffffffffffffffffffffffffffffffffff1673ffffffffffffffffffffffffffffffffffffffff167f09296611d86a5705bed4d196162b80e547d372de9f24f86101eda7bc35add7cb82604051610b8991906110d6565b60405180910390a2610b99610f72565b5050505050565b60085481565b60008060009054906101000a900473ffffffffffffffffffffffffffffffffffffffff16905090565b6000600280549050905090565b60075481565b600660009054906101000a900473ffffffffffffffffffffffffffffffffffffffff1681565b600554610c13610bcf565b10610c53576040517f08c379a0000000000000000000000000000000000000000000000000000000008152600401610c4a90611573565b60405180910390fd5b6003543414610c97576040517f08c379a0000000000000000000000000000000000000000000000000000000008152600401610c8e906115df565b60405180910390fd5b6002339080600181540180825580915050600190039060005260206000200160009091909190916101000a81548173ffffffffffffffffffffffffffffffffffffffff021916908373ffffffffffffffffffffffffffffffffffffffff1602179055503373ffffffffffffffffffffffffffffffffffffffff167f8ef92257fbc070823c8bb4051ff3a58b831946d893fbb1bfd9bc77b87ff77d0934604051610d4091906110d6565b60405180910390a2565b610d52610e42565b73ffffffffffffffffffffffffffffffffffffffff16610d70610ba6565b73ffffffffffffffffffffffffffffffffffffffff1614610dc6576040517f08c379a0000000000000000000000000000000000000000000000000000000008152600401610dbd906112d1565b60405180910390fd5b600073ffffffffffffffffffffffffffffffffffffffff168173ffffffffffffffffffffffffffffffffffffffff161415610e36576040517f08c379a0000000000000000000000000000000000000000000000000000000008152600401610e2d90611671565b60405180910390fd5b610e3f81610e4a565b50565b600033905090565b60008060009054906101000a900473ffffffffffffffffffffffffffffffffffffffff169050816000806101000a81548173ffffffffffffffffffffffffffffffffffffffff021916908373ffffffffffffffffffffffffffffffffffffffff1602179055508173ffffffffffffffffffffffffffffffffffffffff168173ffffffffffffffffffffffffffffffffffffffff167f8be0079c531659141344cd1fd0a4f28419497f9722a3daafe3b4186f6b6457e060405160405180910390a35050565b6000808311610f52576040517f08c379a0000000000000000000000000000000000000000000000000000000008152600401610f49906116dd565b60405180910390fd5b60648284610f6091906116fd565b610f6a9190611757565b905092915050565b600067ffffffffffffffff811115610f8d57610f8c611788565b5b604051908082528060200260200182016040528015610fbb5781602001602082028036833780820191505090505b5060029080519060200190610fd1929190611016565b506000600660006101000a81548173ffffffffffffffffffffffffffffffffffffffff021916908373ffffffffffffffffffffffffffffffffffffffff160217905550565b82805482825590600052602060002090810192821561108f579160200282015b8281111561108e5782518260006101000a81548173ffffffffffffffffffffffffffffffffffffffff021916908373ffffffffffffffffffffffffffffffffffffffff16021790555091602001919060010190611036565b5b50905061109c91906110a0565b5090565b5b808211156110b95760008160009055506001016110a1565b5090565b6000819050919050565b6110d0816110bd565b82525050565b60006020820190506110eb60008301846110c7565b92915050565b6000819050919050565b611104816110f1565b82525050565b600060208201905061111f60008301846110fb565b92915050565b600080fd5b611133816110bd565b811461113e57600080fd5b50565b6000813590506111508161112a565b92915050565b60006020828403121561116c5761116b611125565b5b600061117a84828501611141565b91505092915050565b600073ffffffffffffffffffffffffffffffffffffffff82169050919050565b60006111ae82611183565b9050919050565b6111be816111a3565b82525050565b60006020820190506111d960008301846111b5565b92915050565b60006111ea82611183565b9050919050565b6111fa816111df565b82525050565b600060208201905061121560008301846111f1565b92915050565b611224816111df565b811461122f57600080fd5b50565b6000813590506112418161121b565b92915050565b60006020828403121561125d5761125c611125565b5b600061126b84828501611232565b91505092915050565b600082825260208201905092915050565b7f4f776e61626c653a2063616c6c6572206973206e6f7420746865206f776e6572600082015250565b60006112bb602083611274565b91506112c682611285565b602082019050919050565b600060208201905081810360008301526112ea816112ae565b9050919050565b7f57494e4e45525f4152454144595f445241574e00000000000000000000000000600082015250565b6000611327601383611274565b9150611332826112f1565b602082019050919050565b600060208201905081810360008301526113568161131a565b9050919050565b7f4d494e5f504c41594552535f4e4f545f4d455400000000000000000000000000600082015250565b6000611393601383611274565b915061139e8261135d565b602082019050919050565b600060208201905081810360008301526113c281611386565b9050919050565b7f4e487b7100000000000000000000000000000000000000000000000000000000600052601260045260246000fd5b6000611403826110bd565b915061140e836110bd565b92508261141e5761141d6113c9565b5b828206905092915050565b7f4e487b7100000000000000000000000000000000000000000000000000000000600052603260045260246000fd5b7f4e487b7100000000000000000000000000000000000000000000000000000000600052601160045260246000fd5b6000611492826110bd565b915061149d836110bd565b9250828210156114b0576114af611458565b5b828203905092915050565b7f4e4f5f57494e4e45525f445241574e0000000000000000000000000000000000600082015250565b60006114f1600f83611274565b91506114fc826114bb565b602082019050919050565b60006020820190508181036000830152611520816114e4565b9050919050565b7f4d41585f504c41594552535f4558434545444544000000000000000000000000600082015250565b600061155d601483611274565b915061156882611527565b602082019050919050565b6000602082019050818103600083015261158c81611550565b9050919050565b7f494e434f52524543545f5449434b45545f505249434500000000000000000000600082015250565b60006115c9601683611274565b91506115d482611593565b602082019050919050565b600060208201905081810360008301526115f8816115bc565b9050919050565b7f4f776e61626c653a206e6577206f776e657220697320746865207a65726f206160008201527f6464726573730000000000000000000000000000000000000000000000000000602082015250565b600061165b602683611274565b9150611666826115ff565b604082019050919050565b6000602082019050818103600083015261168a8161164e565b9050919050565b7f414d4f554e545f43414e4e4f545f42455f5a45524f0000000000000000000000600082015250565b60006116c7601583611274565b91506116d282611691565b602082019050919050565b600060208201905081810360008301526116f6816116ba565b9050919050565b6000611708826110bd565b9150611713836110bd565b9250817fffffffffffffffffffffffffffffffffffffffffffffffffffffffffffffffff048311821515161561174c5761174b611458565b5b828202905092915050565b6000611762826110bd565b915061176d836110bd565b92508261177d5761177c6113c9565b5b828204905092915050565b7f4e487b7100000000000000000000000000000000000000000000000000000000600052604160045260246000fdfea2646970667358221220e033f572a0bab9c92ae580e7b5f5962c6b041380cfbf08c5053d15cf7a88513c64736f6c634300080a0033",
  "linkReferences": {},
  "deployedLinkReferences": {}
}